:400000000040002011000000B5050000B505000080B500AF00F002FB80B500AF164B12221A60182000F064FD144B154A1A60154B802212011A60144B144A1A60144BF0221F
:4000400012011A60104B134A1A60134B822212061A60124B00221A60114B40221A60114B41221A60104B00221A60034B11221A60C046BD4680BDC0463000104004010B40B5
:4000800006000080000301400000014040FF00800403014041FF008008010B4000010B4028010140140101400C020B4080B582B000AF72B6FB1D00221A7022E0FB1D1A7807
:4000C00013005B009B185B00454A9B183B603B681A78597809020A43997809040A43DB781B06134318003B681A795B791B0213439BB2190000F0E6F9FB1D1A78FB1D013255
:400100001A70FB1D1B78012BD8D9364A364B1100180000F0E7F9354BC02292041A60344BC02292011A60334BEE2212021A60324B324A1A60324B99221A60324B9922120444
:400140001A60314BC02292051A60304B992212041A602F4BA82252031A602E4B992212041A602D4A2C4B1B78DBB23C218B43DBB214210B43DBB21370284A284B1B78DBB29B
:4001800016210B43DBB21370254B40221A60254BC02252031A60244B80221A60234B08221A60234BC02212011A60224BD82212011A60214B09221A60204B09221A60204B43
:4001C00002221A601F4B31221A601F4B02221A60FFF722FF00F0C8F9C046BD4602B080BD8C1B0000AC1B0000981B00000001024000020240000302400005024006700000B8
:400200000007024010500F4018500F4020500F4028500F4030500F4001700F4000700F400001044008010440180104400002044008020440080304400005044018050440BF
:4002400000070440080704401807044010B5064C2378002B07D1054B002B02D0044800E000BF0123237010BD4801002000000000B01A0000084B10B5002B03D00749084823
:4002800000E000BF07480368002B00D110BD064B002BFBD09847F9E7000000004C010020B01A0000C80000200000000080B500AF00F026F80E4B180000F03CFB0D4B1800FD
:4002C00000F038FB0C4B180000F034FB094B180000F030FB064B180000F02CFB002000F05FFE03009AB2054B1A8000F015F8F5E7B41A0000B81A0000EC1A0000660100209A
:4003000080B500AF00F028FA00F02CFD00F03AFE00231800BD4680BD80B594B000AF4F23FB1800221A704E23FB1801221A700023BB64314B180000F0FDFA37E000F0DAFAE9
:4003400003007B644F23FB184F22BA1812781A704E23FB184E22BA1812781A707B6C002B24D07B6C180000F037FA7B6C202B06D14E23FB181A784E23FB1801321A707B6C78
:400380000D2B09D14F23FB1801221A703A1DBB6CD31800221A7006E07B6CD9B23A1DBB6CD3180A1C1A70BB6C0133BB644F23FB181B78012BC2D1BB6C402BBFD00F4B18008F
:4003C00000F0B8FA0E4B180000F0B4FA3B1D180000F0B0FA0B4B180000F0ACFA4E23FB181A783B1D1100180000F00EF800231800BD4614B080BDC046201B0000241B0000F2
:40040000341B0000B41A000080B58AB000AF78600A00FB1C1A70234A7B681100180000F03BFF031E06D1012000F08CFC012000F0E9FD31E01C4A7B681100180000F02CFF35
:40044000031E06D1002000F07DFC002000F0DAFD22E0164A7B681100180000F01DFF031E16D1134B1B881A0012490823FB18180000F0F0FE104B180000F05CFA0823FB18F1
:40048000180000F057FA0D4B180000F053FA03E00B4B180000F04EFAFB1C1B781800BD460AB080BD441B00004C1B0000541B000066010020581B00005C1B0000B41A00007D
:4004C000681B000080B582B000AF786039603A687B680021180000F0B4FEC046BD4602B080BDC04680B586B000AF7860396000233B6100237B612FE07B699B007A68D318F0
:400500001B68BB600F23FB18BA681A70BB68FF229343BB6018E03B695B003A68D3181B781A00BB68D31819003B695B003A68D3185B780B703B6901333B610F23FB181A787A
:400540000F23FB18013A1A700F23FB181B78002BE1D17B6901337B617B69042BCCD9C046BD4606B080BDC04680B500AF0B4B33221A600B4B03221A600A4B03221A600A4BC7
:40058000802212061A60094B902292031A60084B00221A60C046BD4680BDC04600210240300030403000314000003A4000033A40000E3F4080B500AF00F00EFE03001B6829
:4005C0000C2B00D1FEE7FEE780B584B000AF7860104B1A687B68D3181A000F4BD21A80235B009A4209DC0B4B1B68FB60094B1A687B68D218074B1A6007E000F0EDFD030008
:400600000C221A6001235B42FB60FB681800BD4604B080BDCC0000208801002080B586B000AF224B7B61224B3B61204B7B6135E03B691B68FB603B695B68BB603B699B687F
:400640003B6000237B600CE0FB681A68BB681A60BB680433BB60FB680433FB607B6804337B607A683B689A42EED13B69DB683B6000237B6008E0BB6800221A60BB68043373
:40068000BB607B6804337B607A683B689A42F2D13B6910333B617B69013B7B617B69002BC6D100F09FFDFFF701FEFEE701000000701C000080B582B000AF154B144A1268A0
:4006C00001218A431A6000237B600FE07B68032B04D8104B7A689200D35800E00E4B0F4A796889008B507B6801337B607B682F2BECD9FFF7DBFC0A4B00221A60044B044A97
:40070000126801210A431A60C046BD4602B080BD0000104000000000B505000000000020C000002080B500AF00F06CF8C046BD4680BDC04680B500AF064B064A1268802130
:4007400009060A431A6000F019F800F01DF8C046BD4680BD0000274080B500AF064B1B78002B04D1FFF7DEFF034B01221A70FFF7E1FFC046BD4680BD6801002080B500AFD1
:40078000C046BD4680BDC04680B500AF00F09AF8C046BD4680BDC04680B582B000AF00237B60044B1B687B607B681800BD4602B080BDC0464003274080B582B000AF054B77
:4007C0001B681F2213407B607B681800BD4602B080BDC0460803274080B582B000AF7860C046064B1B681F221340082BF9D0044B7A681A60C046BD4602B080BD0802274036
:400800004002274080B500AF1B4B1C4A1A601C4B00221A601B4B01221A601B4B1B4A1A601B4B07221A601B4B00221A601A4B01221A601A4B154A1A60194B00221A60194BEB
:4008400004221A60184B00221A60184B00221A60174B00221A60174B00221A60164B00221A60164B00221A60144B1B689AB2144B1A80C046BD4680BD000027400C00000202
:4008800040002740480027400003274007000080040327401003274044002740000227400402274050002740880E2740C80E2740480F2740080F2740C80F2740880F27401F
:4008C0006A01002080B500AF074B074A1268F0218A4390210A431A60044B054A12881A60C046BD4680BDC04600070240880F27406A01002080B582B000AF00237B60FFF73C
:400900005BFF031E03D0FFF747FF03007B60084B1A68D8239B00134005D000237B60044BD82292001A607B681800BD4602B080BDC00F274080B584B000AF78600023FB60D8
:4009400009E07A68FB68D3181B781800FFF744FFFB680133FB607A68FB68D3181B78002BEFD1C046BD4604B080BDC04690B587B000AF0023BB6000F0D7F9031E00D17EE061
:40098000FC1D00F05AFB0300237003233B6100237B6111E03C4B1B681A003F2313403B497A698A181278934203D17B6903333B6105E07B6901337B617B692D2BEAD9344B6F
:4009C0001B681F22134007D1314B314A12681F218A430C210A431A602E4B1B682E4A1340FB603B692D4A53438022D20194466344DB0B013B5B055B0DFA681343FB60FB686D
:400A0000A02252031343FB603B69192B05D8FB68FF2292051343FB6016E03B69204A944663441B78DBB219003B691A3B1D4AD35CCB18BB60BB68FF2B00D9FF23BB60BB688C
:400A40009B05FA681343FB60124BFA681A60164B1B683B60302000F0F7FA144B134A12688021C9050A431A60142000F023F90E4B3A681A60FB1D1B78180000F0E2FAC04624
:400A8000BD4607B090BDC0462CFF0B40D01B000034FF0B400800224000F800C040420F00CDF1FF0F001C0000300010400000224080B500AF044B044A126804490A401A60C1
:400AC000C046BD4680BDC04600002240FFFFFFBF80B500AF054B1A688023DB05134001D0012300E000231800BD4680BD0000224090B58BB000AF786000237B622323FC18ED
:400B000000F09BFA03002370FFF7E2FF031E03D001237B62FFF7CCFF1B4B1A680823FB181A601A4B1A680823FB185A607B68033B174AD35C1A000823FB189A60154B1A68A9
:400B40000823FB18DA601823FB18134A1A600823FA181823FB185A60104B1822BA181A600F4B104A1A600D4B1B687B6A012B01D1FFF7FCFE2323FB181B78180000F061FA87
:400B8000C046BD460BB090BD08010B4000010B40D01B000030001040B6EA000008001040040010401700008080B584B000AF02003960FB1D1A7080239B05FB60FB1D1B7898
:400BC0001F2B02D9002000F069F8FB1D1B7810339B00FA68D3181B68BB60FB1D1B7810339B00FA68D3183A681A60BB681800BD4604B080BD90B587B000AF0200FB1D1A70FB
:400C0000BB1D0A1C1A70BB1D1B78032B02D9002000F044F8FB1D1B781F2B02D9002000F03DF8FB1D1B7803221340DB0006337B611323FC1800F001FA03002370FB1D1B78CE
:400C40009B08DBB29B00144A944663441B68FB6003227B699A401300DA43FB681340FB60BB1D1A787B699A401300FA681343FB60FB1D1B789B08DBB29B00074A9446634432
:400C8000FA681A601323FB181B78180000F0D9F9C046BD4607B090BD00E400E080B582B000AF0200FB1D1A7001BEC046BD4602B080BDC04680B582B000AF786009E00D4B2B
:400CC0001B68180000F0B0F97B680B4A944663447B607A6880231B029A42F0D8074B1B687A685343180000F09FF9C046BD4602B080BDC046DC0000200080FFFFD40000208D
:400D000080B582B000AF0200BB1D1A80BB1D1B88044A12785343180000F086F9C046BD4602B080BDD800002080B500AF044B1B68002B01DA012300E000231800BD4680BD8E
:400D40000000224080B582B000AF0200FB1D1A70034AFB1D1B781370C046BD4602B080BD72000F4080B500AF064B1B78002B04D100F00AF8034B01221A7000F0E7F8C04699
:400D8000BD4680BD6C01002080B584B000AF03211020FFF72FFF554B19001020FFF704FF534B01221A60534B1B68002B01DA524900E05249524B524A12680A431A60514B66
:400DC000514A1A60514B524A1A60524B00221A60514B524A1A60524B504A1A60514B00221A60514B00221A60504B01221A60504B1B687B607B684F4A13407B607B688022C0
:400E0000920513437B607B68012293437B60484B7A681A600023FB6060E080235A00DC239B0113407B60FB689B00434A944663447A681A6080235B00012213400AD0394B86
:400E4000384A11680120FA68904002001204120C0A431A6080235B00022213400AD0324B314A11680120FA68904002001204120C0A431A6080235A0080239B00134003D0B6
:400E800080235B00BB6002E080235B01BB6080235A0080235B00134005D1284BFA6852000021D15204E0254BFA6852000021D152BB68234A53438022D20094466344002BFC
:400EC00002DA204A94466344DB121BB219001E4BFA689200D150FB680133FB60FB68002B9BD0C046BD4604B080BDC046E50F000020003A4080033A40C0021051C00200512E
:400F000000003A4004003A408C00008018003A400000FF071C003A4010003A400200020014003A4028023A4038023A4018023A4030003A40FFFFFFDF80003A407C0100205A
:400F400010270000FF0700007801002080B500AF0A4B1B68002B0EDBC046094B1B68002BFBDB064B054A1268802109060A431A600A20FFF7C5FEC046BD4680BD00003A40B9
:400F800008023A4080B500AF044B044A1268802149020A431A60C046BD4680BD04003A4080B584B000AF78607B68002B02D00020FFF774FE7B68002B09D17B689B00084A2B
:400FC000944663441B681B041B0CFB6001E00023FB60FB681BB21800BD4604B080BDC04680013A4080B582B000AF054B1B687B60034B7A681A60C046BD4602B080BDC04644
:4010000010023A4080B582B000AF0200FB1D1A70034AFB1D1B781370C046BD4602B080BD73000F40000000000230800803D00138FDD1C046C046C0467047EFF3108072B63E
:40104000704780F31088704790B585B000AF78600F23FC18FFF7F1FF030023707B68102B06D8164B154A126803218A431A601AE07B68202B08D8114B104A126803218A436A
:4010800001210A431A600EE07B68302B08D80B4B0A4A126803218A4302210A431A6002E00020FFF7FBFD0F23FB181B781800FFF7C8FFC046BD4605B090BDC046300010400E
:4010C000002243088B4274D303098B425FD3030A8B4244D3030B8B4228D3030C8B420DD3FF22090212BA030C8B4202D31212090265D0030B8B4219D300E0090AC30B8B427F
:4011000001D3CB03C01A5241830B8B4201D38B03C01A5241430B8B4201D34B03C01A5241030B8B4201D30B03C01A5241C30A8B4201D3CB02C01A5241830A8B4201D38B023F
:40114000C01A5241430A8B4201D34B02C01A5241030A8B4201D30B02C01A5241CDD2C3098B4201D3CB01C01A524183098B4201D38B01C01A524143098B4201D34B01C01AB4
:40118000524103098B4201D30B01C01A5241C3088B4201D3CB00C01A524183088B4201D38B00C01A524143088B4201D34B00C01A5241411A00D20146524110467047FFE710
:4011C00001B5002000F006F802BDC0460029F7D076E770477047C046014B18687047C046440100200E4B70B500251E000D4CE41AA410A54204D0AB00F35898470135F8E746
:4012000000F024FD084B00251E00084CE41AA410A54204D0AB00F35898470135F8E770BD581C0000581C0000581C0000601C0000002310B59A4203D0CC5CC4540133F9E76C
:4012400010BD03008218934202D019700133FAE7704700000EB410B59DB002A9029008610B48822488604861012040421FABC881084804CBA400006801938C8100F078F822
:401280000023029A13701DB010BC08BC03B01847FFFFFF7F4401002002780B78002A03D0013001319A42F7D0D01A7047F0B58E6885B007000C00039201939E4243D8902341
:4012C0008A89DB001A423ED003250969236801985B1A029363695D43EB0F5D19029B6D1001331B18AB4200D91D00530510D52900380000F037FB061E14D0029A2169FFF7AA
:4013000097FFA289194B134080221343A38112E02A00380000F086FB061E0CD12169380000F0D4FA0C23402201203B60A38940421343A38117E0029B2661F61826606561E9
:40134000019EED1AA560019BB34200D21E0032000399206800F0A5FA0020A3689B1BA36023689E19266005B0F0BDC0467FFBFFFFF0B59FB0029005938B890F0016001B0658
:4013800010D50B69002B0DD1402100F0EBFA38603861002804D10C23029A01381360D8E040237B61002306AD6B6120336B761033AB7634002378002B03D1A31B049312D0BA
:4013C00003E0252BF9D00134F4E7A31B320039000298FFF76BFF431C00D1B4E06A69049B944663446B612378002B00D1ABE00122002352426A6002A95432521801342B601A
:40140000EB60AB601370AB65534E21780522300000F03CFA002807D00123801B83402A68013413432B60EFE72B68DA0604D55322202102A8121811701A0704D553222B21FB
:4014400002A81218117022782A2A03D0099B00200A210EE0059A111D12680591002A01DB099204E05242EA60022213432B6001340BE02278303A092A04D84B4301349B188B
:401480000120F6E7002800D0099323782E2B1ED163782A2B0AD1059B02341A1D1B680592002B01DA01235B42079310E000230A201A0001346B6021783039092904D8424338
:4014C000013452180123F6E7002B00D00792234E21780322300000F0D9F9002806D04023801B83402A68013413432B60217806221B48661C297600F0C9F9002812D0194BCB
:40150000002B06D10722059B073393430833059314E005AB00933A00134B2900029800E000BF07E005AB00933A000F4B2900029800F08AF80390039B013304D06B69039A2F
:401540009B186B6135E7BB890B985B0601D5012040421FB0F0BDC046191C00001F1C0000231C000000000000AD120000F7B5170001938A680B6900900C00934200DA130004
:4015800022003B6043321278002A01D001333B6023689B0602D53B6802333B60062523681D401ED0230043331B785A1E9341226892061CD53020E1184331087021005A1CD7
:4015C00045310978A2184332023311700FE022000123193201990098089EB047431C0ED00135E3683A689B1A9D42F0DBDAE72200019943320098089DA847431C02D1012090
:40160000404220E006232068E1683A6803400025042B03D18D1AEB43DB171D40A3682269934201DD9B1AED180027BD420AD0220001231A3201990098089EB047431CDED08C
:401640000137F2E70020FEBDF0B58BB006920A0043320793059004920A7E0C00109B6E2A00D1ABE011D8632A22D009D8002A00D1B5E0582A00D0C5E045310A70814A4FE0D5
:40168000642A1DD0692A1BD0BCE0732A00D1AAE009D86F2A29D0702A00D0B3E0202209680A43226037E0752A1FD0782A33D0A9E00E001A684236111D196013683370A4E087
:4016C00021681A68080606D4490604D5111D19600023D55E02E0111D19601568002D3BDA2D23049A6D42137036E021681A68080606D4490604D51568111D1960ADB202E0D4
:40170000111D196015685F4B227E039308276F2A1DD00A271BE022007821453211705A4A19680392081D226818600D68100602D4500600D5ADB2D30702D520231A43226072
:401740001027002D03D1202322689A4322602300002243331A7002E00A274A4B03936368A360002B09DB0422216891432160002D05D1049E002B11D07BE0002D79D0049E7D
:4017800028003900FFF722FD039B013E5B5C280033703900FFF794FC051EF1D1082F09D12368DB0706D563682269934202DC3023013E3370049B9B1B23612BE009681A6842
:4017C000080607D4490605D5111D19601368A28A1A8004E0111D1960136862691A600023049E236116E01A68111D1960166800216268300000F04AF8002801D0801B60601D
:40180000636803E0260042363270012323610023049A1370079B09AA00932100069B0598FFF7A4FE431C02D10120404227E02369320006990598079DA847431CF4D02368D8
:4018400000259B070FD4099BE068984217DA180015E022000123193206990598079EB047431CE1D00135E368099A9B1A9D42F0DBE9E72600039B42361B7833708EE70BB08C
:40188000F0BDC0462A1C00003B1C0000C9B28218904204D003788B4202D00130F8E70020704710B5884202D98B18984201D3002305E09B1A013A08D3995C8154FAE793420E
:4018C00003D0CC5CC4540133F9E710BD70B50500002944D00C1F2368002B00DAE418280000F0D8F81E4A13681100002B02D16360146031E0A3420DD92268A018834203D10E
:4019000018685B688218226063600C6024E0A24203D813005A68002AF9D11E689819A0420BD12168711858181960824214D110685268411819605A600EE0A04202D90C235C
:401940002B6009E021686018824203D1106852684118216062605C60280000F09CF870BD74010020032370B5CD1C9D43083506000C2D01D20C2501E0002D01DBA94202D91E
:401980000C23336048E0300000F084F8234B1C681A002100002913D00B685B1B0DD40B2B02D90B60CC181EE08C4202D1636813601AE04B6863600C0016E00C004968E9E762
:4019C000174C2368002B03D1300000F051F820602900300000F04CF8431C18D00323C41C9C43A0420DD12560300000F054F8200007220B30231D9043C31A0ED05A42E25087
:401A00000BE0211A300000F033F8431CEBD10C233000336000F03FF8002070BD7401002070010020F8B506000C001500002904D11100FFF797FF040018E0002A03D1FFF72F
:401A400045FF2C0012E000F027F885420ED929003000FFF787FF071E07D021002A00FFF7E7FB21003000FFF731FF3C002000F8BD002370B5064C050008002360FEF7A4FD0B
:401A8000431C03D12368002B00D02B6070BDC04680010020704770470B1F1A68101F002A04DA891804390B68D018043870470000000000000D0A00002A2A2A2A2A2A2A2A2A
:401AC0002A2A2A2A2A2A2A2A2A2A2A2A2A2A2A2A2A2A2A2A2A2A2A2A2A2A2A2A2A2A2A2A2A2A2A2A2A2A2A2A0D0A00002A2053696D706C652073657269616C20636F6D6D1F
:401B0000756E69636174696F6E205541525420626173652073797374656D202A0D0A00003A2000000D0A4F4B2C207468616E6B73210D0A00596F757220636F6D6D616E64D8
:401B40003A2000004C4544206F6E00004C4544206F66660072000000256400004144432076616C75653A00004920646F6E277420756E6465727374616E6420746861742041
:401B8000636F6D6D616E64210D0A000000300F40000400400F40000404320F4004330F4004410F4002420F4003430F405B045F01DB04DF0169806F0187018D40670487040F
:401BC000D880E2405040D4048C409480E4080000030405060708090A0B0C0E0F101112131415161718191B1C1D1E1F2021222325262728292A2B2E2F303132333435000047
:401C0000EEDBC9B9AA9B8E82766B60564D443B332C241D17100A044300232D302B2000686C4C006566674546470030313233343536373839414243444546003031323334FE
:401C4000353637383961626364656600F8B5C046F8BC08BC9E46704775020000B5060000F8B5C046F8BC08BC9E4670474D020000801C0000C80000208000000040000000AB
:401C8000000000008801002000366E01C05D0000180000000000E02E010000000000000000000000000000000000000000000000000000000000000000000000171C00005F
:401CC000000000000000000000000000000000000000000000000000000000000000000000000000000000000000000000000000000000000000000000000000E4000020E0
:401D000000000000000000000000000000000000000000000000000000000000000000000000000000000000000000000000000000000000000000000000000000000000A3
:401D40000000000000000000000000000000000000000000000000000000000000000000000000000000000000000000000000000000000000000000000000000000000063
:401D80000000000000000000000000000000000000000000000000000000000000000000000000000000000000000000000000000000000000000000000000000000000023
:401DC00000000000000000000000000000000000000000000000000000000000000000000000000000000000000000000000000000000000000000000000000000000000E3
:020000040001F9
:0200000490303A
:020000002B864D
:0200000490402A
:4000000000000000000000000000000000000000000000000000000000000000000000000000000000000000000000000000000000000000000000000000000000000000C0
:400040000000000000000000000000000000000000000000000000000000000000000000000000000000000000000000000000000000000000000000000000000000000080
:0200000490501A
:0C0000000002112D11A1000111363D2756
:0200000490600A
:0100000001FE
:00000001FF